:100000000C9456000C9460000C9460000C946000FA
:100010000C9460000C9460000C9460000C946000E0
:100020000C9460000C9460000C9460000C946000D0
:100030000C9460000C9460000C9460000C946000C0
:100040000C9460000C9460000C9460000C946000B0
:100050000C9460000C9460000C9460000C946000A0
:100060000C9460000C9460000C9460000C94600090
:100070000C9460000C9460000C9460000C94600080
:100080000C9460000C9460000C9460000C94600070
:100090000C9460000C9460000C9460000C94600060
:1000A0000C9460000C9460000C94600011241FBE3E
:1000B000CFEFDAE0DEBFCDBF0E948B020C94670465
:1000C0000C94000080E88093610010926100219AF6
:1000D00042E020E931E085B1842785B980E197E2EB
:1000E000F9013197F1F70197D9F7F5CF80E88093BF
:1000F000610010926100219A81E090E040EA5FE0A7
:1001000020E83EE3019739F4299ACA010197F1F7F3
:1001100080E090E0F7CF2998C9010197F1F781E0DD
:1001200090E0F0CF80E8809361001092610083E05E
:1001300080939100219A22E0809194009091950003
:100140008B569841C8F385B1822785B910929500E6
:1001500010929400F1CFE1E6F0E080E88083108215
:1001600046980895CF92DF92EF92FF920F931F93DC
:10017000CF93DF9380E880936100109261003E9AF4
:1001800081E88093900089E0809391000F2EF0E049
:10019000EF2EF0E0FF2EF0E00F2FF0E01F2FF02DFC
:1001A00080EAC82E8FE0D82E15C0C801B7010E9482
:1001B0005F037093990060939800C6010197F1F76F
:1001C000C801B70124EB32EA41E95EE30E948F02E5
:1001D0007B018C01C801B70120E030E04FE753E418
:1001E0000E94F30218160CF70F2EF0E0EF2EF0E04D
:1001F000FF2EFFE70F2FF3E41F2FF02DC0E0D0E01C
:10020000C801B7010E945F03709399006093980042
:10021000C6010197F1F7C801B7012EE034E74AE5BE
:100220005FE30E948E027B018C01219681E0CB323C
:10023000D80731F7CFCF2F923F924F925F926F92B4
:100240007F928F929F92AF92BF92CF92DF92EF9266
:10025000FF920F931F93CF93DF9359016A01170108
:10026000280120E8209361001092610020E030E036
:100270004AE754E40E9404049B01AC0160E070E092
:1002800080E893E40E94F7023B014C01C601B501EE
:1002900020E030E04AE754E40E9404049B01AC01F2
:1002A00060E070E080E893E40E94F7025B016C017B
:1002B0003E9A81E88093900089E0809391000F2E10
:1002C000F0E0EF2EF0E0FF2EF0E00F2FF0E01F2F18
:1002D000F02DC0EADFE0C801B701A20191010E9440
:1002E00004040E945F037093990060939800CE010C
:1002F0000197F1F7C801B701A40193010E948F0291
:100300007B018C0120E030E04FE753E40E94F302D0
:1003100018160CF70F2EF0E0EF2EF0E0FF2EFFE79F
:100320000F2FF3E41F2FF02DC0EADFE0C801B70163
:10033000A20191010E9404040E945F03709399003E
:1003400060939800CE010197F1F7C801B701A601AB
:1003500095010E948E027B018C0120E030E040E09C
:1003600050E00E94000487FFE1CFDF91CF911F9101
:100370000F91FF90EF90DF90CF90BF90AF909F9044
:100380008F907F906F905F904F903F902F90089547
:10039000EF92FF920F931F93CF93DF93C0E9D1E0C9
:1003A0006DEC7CEC8CEC9DE32DEC3CEC4CEC5EE3DA
:1003B0000F2EF0E0EF2EF0E0FF2EF0E80F2FFFE31E
:1003C0001F2FF02D0E941B016DEC7CEC8CEC9DE34B
:1003D0002DEC3CEC4CEC5EE30F2EF0E0EF2EF0E069
:1003E000FF2EF0E00F2FFFE31F2FF02D0E941B01C7
:1003F0006DEC7CEC8CEC9DE32DEC3CEC4CEC5EE38A
:100400000F2EF0E0EF2EF0E0FF2EF0E80F2FFFE3CD
:100410001F2FF02D0E941B016DEC7CEC8CEC9DE3FA
:100420002DEC3CEC4CEC5EE30F2EF0E0EF2EF0E018
:10043000FF2EF0E00F2FFFE31F2FF02D0E941B0176
:1004400080E29EE4FE013197F1F70197D9F7A8CF3A
:100450008F929F92AF92BF92CF92DF92EF92FF92D4
:100460000F931F93CF93DF933E9A0F2EF0E0AF2EA2
:10047000F0E0BF2EF0E8CF2EFFE3DF2EF02DC0E03E
:10048000D0E080E9882E81E0982E6DEC7CEC8CEC3D
:100490009DE32DEC3CEC4CEC5EE3860175010E9483
:1004A0001B01C601B50120E030E040E05FE30E949F
:1004B00004047B018C016DEC7CEC8CEC9DE32DEC59
:1004C0003CEC4CEC5EE30E941B01109290001092F9
:1004D000910080E197E2F4013197F1F70197D9F7A4
:1004E000C601B5012DEC3CEC4CE45DE30E948E02AC
:1004F0005B016C012196C431D10539F6DF91CF91B2
:100500001F910F91FF90EF90DF90CF90BF90AF9031
:100510009F908F9008950E94280208955058BB27FD
:10052000AA270ED033C124D130F029D120F031F4E4
:100530009F3F11F41EF419C10EF4E095E7FB0FC1C3
:10054000E92F35D180F3BA1762077307840795073F
:1005500018F071F49EF54DC10EF4E0950B2EBA2FF4
:10056000A02D0B01B90190010C01CA01A0011124B9
:10057000FF27591B99F0593F50F4503E68F11A1665
:10058000F040A22F232F342F4427585FF3CF4695F6
:1005900037952795A795F0405395C9F77EF41F1618
:1005A000BA0B620B730B840BBAF09150A1F0FF0FE2
:1005B000BB1F661F771F881FC2F70EC0BA0F621FCE
:1005C000731F841F48F4879577956795B795F795BE
:1005D0009E3F08F0B3CF9395880F08F09927EE0F50
:1005E00097958795089597D008F481E008950CD0E9
:1005F000CDC0C5D040F0BCD030F021F45F3F19F041
:10060000AEC05111F7C0B1C0D2D098F39923C9F34D
:100610005523B1F3951B550BBB27AA276217730708
:10062000840738F09F5F5F4F220F331F441FAA1FBC
:10063000A9F333D00E2E3AF0E0E830D0915050407C
:10064000E695001CCAF729D0FE2F27D0660F771F2A
:10065000881FBB1F261737074807AB07B0E809F00C
:10066000BB0B802DBF01FF2793585F4F2AF09E3FA1
:10067000510568F074C0BEC05F3FECF3983EDCF3F8
:10068000869577956795B795F7959F5FC9F7880F1A
:10069000911D9695879597F90895E1E0660F771F6C
:1006A000881FBB1F621773078407BA0720F0621BFD
:1006B000730B840BBA0BEE1F88F7E09508957FD07B
:1006C00088F09F5790F0B92F9927B751A0F0D1F03B
:1006D000660F771F881F991F1AF0BA95C9F712C0C5
:1006E000B13081F086D0B1E0089583C0672F782FB4
:1006F0008827B85F39F0B93FCCF386957795679531
:10070000B395D9F73EF490958095709561957F4F9C
:100710008F4F9F4F0895990F0008550FAA0BE0E8DF
:10072000FEEF16161706E807F907C0F012161306B3
:10073000E407F50798F0621B730B840B950B39F4F3
:100740000A2661F0232B242B252B21F408950A2659
:1007500009F4A140A6958FEF811D811D089597F999
:100760009F6780E870E060E008959FEF80EC089557
:1007700000240A9416161706180609060895002480
:100780000A9412161306140605060895092E0394FA
:10079000000C11F4882352F0BB0F40F4BF2B11F46E
:1007A00060FF04C06F5F7F4F8F4F9F4F089557FDCD
:1007B0009058440F551F59F05F3F71F04795880FCF
:1007C00097FB991F61F09F3F79F087950895121666
:1007D00013061406551FF2CF4695F1DF08C0161612
:1007E00017061806991FF1CF8695710561050894C3
:1007F0000895E894BB2766277727CB0197F90895DA
:100800008ADF08F48FEF08950BD0C0CFB1DF28F056
:10081000B6DF18F0952309F0A2CFA7CF1124EACFB5
:10082000C6DFA0F3959FD1F3950F50E0551F629F4F
:10083000F001729FBB27F00DB11D639FAA27F00D39
:10084000B11DAA1F649F6627B00DA11D661F829F60
:100850002227B00DA11D621F739FB00DA11D621F45
:10086000839FA00D611D221F749F3327A00D611D62
:10087000231F849F600D211D822F762F6A2F112444
:100880009F5750408AF0E1F088234AF0EE0FFF1F97
:10089000BB1F661F771F881F91505040A9F79E3FCE
:1008A000510570F05CCFA6CF5F3FECF3983EDCF3D0
:1008B000869577956795B795F795E7959F5FC1F70B
:1008C000FE2B880F911D9695879597F90895F894BA
:0208D000FFCF58
:00000001FF
